:100000000C942A000C943F000C943F000C943F0089
:100010000C943F000C943F000C943F000C943F0064
:100020000C943F000C943F000C943F000C943F0054
:100030000C943F000C943F000C943F000C943F0044
:100040000C943F000C943F000C943F000C943F0034
:100050000C943F0011241FBECFE5D4E0DEBFCDBF1E
:1000600010E0A0E6B0E0EEE9F1E002C005900D92EC
:10007000AA36B107D9F70E94B1000C94CD000C94B8
:100080000000982F907F95BB95B39E7F95BB95B34D
:100090009D7F95BB95B3946095BBE9EFF0E03197F8
:1000A000F1F700C0000095B39B7F95BBF0E18F9FF7
:1000B000C001112485BB85B38E7F85BB85B38D7F41
:1000C00085BB85B3846085BB89EF90E00197F1F72C
:1000D00000C0000085B38B7F85BB0895982F907F6B
:1000E00095BB95B3916095BB95B39D7F95BB95B33B
:1000F000946095BBE9EFF0E03197F1F700C00000A4
:1001000095B39B7F95BBF0E18F9FC001112485BB08
:1001100085B3816085BB85B38D7F85BB85B38460E6
:1001200085BB89EF90E00197F1F700C0000085B32F
:100130008B7F85BB08950F931F93CF93DF938C0123
:10014000C0E0D0E003C00E946E002196F801EC0FE1
:10015000FD1F80818111F7CFDF91CF911F910F910A
:1001600008958FEF84BB82E00E94410088E20E94E4
:1001700041008CE00E94410086E00E94410080E83E
:100180000E94410089E40E946E0080EC0E944100C0
:0E01900080E690E00E949B00F2CFF894FFCF33
:0A019E007072617665656E20000046
:00000001FF
