S0100000697273656E736F722E737265639F
S11300000C942A000C9434000C9434000C943400A6
S11300100C9434000C9434000C9434000C9434008C
S11300200C9434000C9434000C9434000C9434007C
S11300300C9434000C9434000C9434000C9434006C
S11300400C9434000C9434000C9434000C9434005C
S11300500C94340011241FBECFE5D4E0DEBFCDBF25
S11300600E9436000C9447000C9400001ABA8FEFDB
S113007084BB8BB3282F217030E080FF03C080EF56
S113008085BBF7CF232BA9F78FE085BBF2CFF8947C
S1050090FFCF9C
S9030000FC
