:100000000C942A000C9434000C9434000C943400AA
:100010000C9434000C9434000C9434000C94340090
:100020000C9434000C9434000C9434000C94340080
:100030000C9434000C9434000C9434000C94340070
:100040000C9434000C9434000C9434000C94340060
:100050000C94340011241FBECFE5D4E0DEBFCDBF29
:100060000E9436000C9449000C94000087B3816014
:1000700087BB87B38D7F87BB86B3827086BB88239F
:1000800021F088B3816088BBF7CF88B38E7F88BBAF
:06009000F3CFF894FFCF4E
:00000001FF
