S01A000065787472656E616C20696E746572727570742E737265639A
S11300000C942A000C9444000C9453000C94340077
S11300100C9434000C9434000C9434000C9434008C
S11300200C9434000C9434000C9434000C9434007C
S11300300C9434000C9434000C9434000C9434006C
S11300400C9434000C9434000C9462000C9434002E
S11300500C94340011241FBECFE5D4E0DEBFCDBF25
S11300600E9436000C9470000C94000087B38360E7
S113007087BB78948BB7806E8BBF85B78F6085BF45
S113008084B7806484BFFFCF1F920F920FB60F9284
S113009011248F9388B3816088BB8F910F900FBE1A
S11300A00F901F9018951F920F920FB60F92112464
S11300B08F9388B38E7F88BB8F910F900FBE0F9064
S11300C01F9018951F920F920FB60F9211248F93C1
S11300D082E088BB8F910F900FBE0F901F901895F0
S10700E0F894FFCFBE
S9030000FC
