:100000000C942A000C9434000C9434000C943400AA
:100010000C9434000C9434000C9434000C94340090
:100020000C9434000C9434000C9434000C94340080
:100030000C9434000C9434000C9434000C94340070
:100040000C9434000C9434000C9434000C94340060
:100050000C94340011241FBECFE5D4E0DEBFCDBF29
:100060000E9436000C9420010C94000080EF8ABBA3
:1000700080E090E059C029E02BBB2FEF30E762E031
:10008000215030406040E1F700C0000028E02BBB69
:100090002FEF30E762E0215030406040E1F700C0D0
:1000A00000002CE02BBB2FEF30E762E02150304006
:1000B0006040E1F700C0000024E02BBB2FEF30E7E9
:1000C00062E0215030406040E1F700C0000026E0CF
:1000D0002BBB2FEF30E762E0215030406040E1F76A
:1000E00000C0000022E02BBB2FEF30E762E0215080
:1000F00030406040E1F700C0000023E02BBB2FEF51
:1001000030E762E0215030406040E1F700C000007D
:1001100021E02BBB2FEF30E762E021503040604000
:10012000E1F700C000000196823391050CF4A3CFE3
:1001300089E08BBB8FEF90E722E081509040204018
:10014000E1F700C000003FEF63ED80E33150604015
:100150008040E1F700C000005AC081E08BBB9FEFF8
:1001600020E732E0915020403040E1F700C000002D
:1001700083E08BBB6FEF80E792E06150804090405E
:10018000E1F700C0000082E08BBB2FEF30E762E0B8
:10019000215030406040E1F700C0000086E08BBB9A
:1001A0008FEF90E722E0815090402040E1F700C0BF
:1001B000000084E08BBB3FEF60E782E0315060409D
:1001C0008040E1F700C000008CE08BBB9FEF20E790
:1001D00032E0915020403040E1F700C0000088E05C
:1001E0008BBB6FEF80E792E0615080409040E1F779
:1001F00000C0000089E08BBB2FEF30E762E02150A8
:1002000030406040E1F700C000004F5F5F4F423375
:1002100051050CF4A2CF89E08BBB8FEF90E722E071
:10022000815090402040E1F700C000003FEF63EDB7
:1002300080E3315060408040E1F700C0000018CFFB
:04024000F894FFCF60
:00000001FF
