S0120000736572766F6D6F746F722E73726563B2
S11300000C942A000C9434000C9434000C943400A6
S11300100C9434000C9434000C9434000C9434008C
S11300200C9434000C9434000C9434000C9434007C
S11300300C9434000C9434000C9434000C9434006C
S11300400C9434000C9434000C9434000C9434005C
S11300500C94340011241FBECFE5D4E0DEBFCDBF25
S11300600E9436000C947F000C9400008FB58360CE
S11300708FBD8EB58F7E8EBD8EB588608EBD8FB5DB
S113008080688FBD8FB58F7B8FBD8EB583608EBD2D
S11300908EB58B7F8EBD81B3806281BB80E090E0A2
S11300A009C09BBD8ABDE3EFF1E03197F1F700C0D1
S11300B0000001968115F4E09F0798F32FE78AE189
S11300C096E0215080409040E1F700C0000080E0BD
S11300D094E009C09BBD8ABDE3EFF1E03197F1F7ED
S11300E000C0000001970097A9F7FFE72AE186E026
S11300F0F15020408040E1F700C00000CFCFF894D9
S1050100FFCF2B
S9030000FC
