:100000000C942A000C9449000C9447000C9447006F
:100010000C9447000C9447000C9447000C94470044
:100020000C9447000C9447000C9447000C94470034
:100030000C9447000C9447000C9447000C94470024
:100040000C9447000C9447000C9447000C94470014
:100050000C94470011241FBECFE5D4E0DEBFCDBF16
:1000600010E0A0E6B0E0E4E3F2E002C005900D92FB
:10007000A237B107D9F720E0A2E7B0E001C01D9296
:10008000A637B207E1F70E94DE000C9418010C9429
:1000900000001F920F920FB60F9211248F939F931F
:1000A0008091720090917300019769F41EBC8CB529
:1000B0009DB590937500809374001DBC1CBC10927C
:1000C0007300109272008091720090917300892BDE
:1000D00049F48EB581608EBD81E090E0909373000D
:1000E000809372009F918F910F900FBE0F901F9081
:1000F0001895982F907F98BB98B39E7F98BB98B324
:100100009D7F98BB98B3946098BBE9EFF0E031977E
:10011000F1F700C0000098B39B7F98BBF0E18F9F80
:10012000C001112488BB88B38E7F88BB88B38D7FC4
:1001300088BB88B3846088BB89EF90E00197F1F7B2
:1001400000C0000088B38B7F88BB0895982F907FF4
:1001500098BB98B3916098BB98B39D7F98BB98B3B8
:10016000946098BBE9EFF0E03197F1F700C0000030
:1001700098B39B7F98BBF0E18F9FC001112488BB8F
:1001800088B3816088BB88B38D7F88BB88B3846067
:1001900088BB89EF90E00197F1F700C0000088B3B9
:1001A0008B7F88BB08958C01C0E0D0E0F801EC0F94
:1001B000FD1F80810E94A6002196F8CF8FEF87BB9C
:1001C0008BEF81BB83ED90E30197F1F700C0000056
:1001D0008BB780648BBF85B7816085BF82E00E944A
:1001E000790088E20E9479008CE00E94790086E024
:1001F0000E947900789482B3816082BB85EA9EE098
:100200000197F1F700C0000082B38E7F82BB85EAC0
:100210009EE00197F1F700C000008091740090917A
:10022000750080E80E94790080E690E00E94D3008B
:04023000F894FFCF70
:10023400756C747261736F6E69632073656E736F2E
:02024400720046
:00000001FF
