S01E0000626C7565746F6F7468207769746861746D65676131362E737265637E
S11300000C942A000C943C000C943C000C943C008E
S11300100C943C000C943C000C943C000C943C006C
S11300200C943C000C943C000C943C000C945D003B
S11300300C943C000C943C000C943C000C943C004C
S11300400C943C000C943C000C943C000C943C003C
S11300500C943C0011241FBECFE5D4E0DEBFCDBF1D
S113006020E0A0E6B0E001C01D92A136B207E1F79E
S11300700E943E000C946C000C94000078948AB1A9
S113008088698AB980B5866080BD8BB182608BB97E
S11300908FEC89B910BC87B3816087BB8091600005
S11300A0813619F488B3816088BB80916000823600
S11300B0A9F788B38E7F88BBF1CF1F920F920FB63A
S11300C00F9211248F938CB1809360008F910F90C5
S10F00D00FBE0F901F901895F894FFCFFE
S9030000FC
