S01C0000377365676D656E747769746861746D65676131362E737265634C
S11300000C942A000C943F000C943F000C943F0085
S11300100C943F000C943F000C943F000C943F0060
S11300200C943F000C943F000C943F000C943F0050
S11300300C943F000C943F000C943F000C943F0040
S11300400C943F000C943F000C943F000C943F0030
S11300500C943F0011241FBECFE5D4E0DEBFCDBF1A
S113006010E0A0E6B0E0EEEDF0E002C005900D92E5
S1130070AA36B107D9F70E9441000C946D000C9484
S11300800000CF93DF93CDB7DEB72A970FB6F8946D
S1130090DEBF0FBECDBF8FEF87BB8AE0E0E6F0E0A6
S11300A0DE01119601900D928A95E1F780E012C06D
S11300B0E1E0F0E0EC0FFD1FE80FF11D908198BB2B
S11300C02FEF31EE94E0215030409040E1F700C032
S11100D000008F5F8A3060F3E9CFF894FFCF11
S10D00DE3F065B4F666D7C077F6FE1
S9030000FC
