:100000000C942A000C9434000C9434000C943400AA
:100010000C9434000C9434000C9434000C94340090
:100020000C9434000C9434000C9434000C94340080
:100030000C9434000C9434000C9434000C94340070
:100040000C9434000C9434000C9434000C94340060
:100050000C94340011241FBECFE5D4E0DEBFCDBF29
:100060000E9436000C9458000C94000081B3806804
:1000700081BB84B38E7F84BB989B0DC082B38068A4
:1000800082BB2FE38DE093E0215080409040E1F768
:1000900000C00000F1CF82B38F7782BB2FE38DE0E9
:1000A00093E0215080409040E1F700C00000E4CF91
:0400B000F894FFCFF2
:00000001FF
