S01500006D6F746F7220636F6E74726F6C2E73726563BD
S11300000C942A000C9434000C9434000C943400A6
S11300100C9434000C9434000C9434000C9434008C
S11300200C9434000C9434000C9434000C9434007C
S11300300C9434000C9434000C9434000C9434006C
S11300400C9434000C9434000C9434000C9434005C
S11300500C94340011241FBECFE5D4E0DEBFCDBF25
S11300600E9436000C9445000C9400001ABA8FEFDD
S113007087BB89B3813011F488BBFBCF89B382304D
S111008011F488BBF6CF18BAF4CFF894FFCF72
S9030000FC
