S0180000616463207769746861746D65676131362E7372656332
S11300000C942A000C943F000C943F000C943F0085
S11300100C943F000C943F000C943F000C943F0060
S11300200C943F000C943F000C943F000C943F0050
S11300300C943F000C943F000C94F1000C943F008E
S11300400C943F000C943F000C943F000C943F0030
S11300500C943F0011241FBECFE5D4E0DEBFCDBF1A
S113006010E0A0E6B0E0EAE0F2E002C005900D92F4
S1130070AA36B107D9F70E94B1000C9403010C947D
S11300800000982F907F95BB95B39E7F95BB95B349
S11300909D7F95BB95B3946095BBEFE9FFE03197E5
S11300A0F1F700C0000095B39B7F95BBF0E18F9FF3
S11300B0C001112485BB85B38E7F85BB85B38D7F3D
S11300C085BB85B3846085BB8FE99FE00197F1F719
S11300D000C0000085B38B7F85BB0895982F907F67
S11300E095BB95B3916095BB95B39D7F95BB95B337
S11300F0946095BBEFE9FFE03197F1F700C0000091
S113010095B39B7F95BBF0E18F9FC001112485BB04
S113011085B3816085BB85B38D7F85BB85B38460E2
S113012085BB8FE99FE00197F1F700C0000085B31C
S11301308B7F85BB08950F931F93CF93DF938C011F
S1130140C0E0D0E003C00E946E002196F801EC0FDD
S1130150FD1F80818111F7CFDF91CF911F910F9106
S1130160089578948FB583608FBD8EB588608EBDF9
S11301708EB58F7E8EBD8FB580688FBD8FB58F7B1A
S11301808FBD8EB583608EBD8EB58B7F8EBD81B3E2
S1130190806281BB17B886B18C6A86B986B18C7FC0
S11301A086B986B1806486B98FEF84BB82E00E94F1
S11301B0410088E20E9441008CE00E94410086E0F8
S11301C00E94410080E80E94410084B195B10E94E0
S11301D06E0080EC0E94410080E690E00E949B004B
S11301E0F1CF1F920F920FB60F9211248F939F930A
S11301F084B195B19BBD8ABD9F918F910F900FBE25
S10D02000F901F901895F894FFCF9B
S10D020A74686520776F726C64005D
S9030000FC
