:100000000C942A000C943C000C943C000C943C0092
:100010000C943C000C943C000C943C000C943C0070
:100020000C943C000C943C000C943C000C943C0060
:100030000C943C000C943C000C943C000C943C0050
:100040000C943C000C943C000C943C000C943C0040
:100050000C943C0011241FBECFE5D4E0DEBFCDBF21
:1000600020E0A0E6B0E001C01D92A236B207E1F7A1
:100070000E943E000C94C3000C9400008FB5836076
:100080008FBD8EB58F7E8EBD8EB588608EBD8FB5CF
:1000900080688FBD8FB58F7B8FBD8EB583608EBD21
:1000A0008EB58B7F8EBD81B3806381BB1092610062
:1000B0001092600011C099BD88BD83EF91E0019757
:1000C000F1F700C0000080916000909161000196FE
:1000D0009093610080936000809160009091610036
:1000E000811524E0920738F31092610010926000AD
:1000F00011C09BBD8ABD83EF91E00197F1F700C06D
:1001000000008091600090916100019690936100E1
:10011000809360008091600090916100811524E0DF
:10012000920738F38FE79AE126E081509040204013
:10013000E1F700C000008FEF93E09093610080939F
:10014000600011C09BBD8ABD83EF91E00197F1F77C
:1001500000C0000080916000909161000197909331
:100160006100809360008091600090916100009731
:1001700049F79FE72AE186E0915020408040E1F76F
:0A01800000C0000093CFF894FFCFF9
:00000001FF
