S01B0000756C7472612073736F6E69632073656E736F722E7372656378
S11300000C942A000C9449000C9447000C9447006B
S11300100C9447000C9447000C9447000C94470040
S11300200C9447000C9447000C9447000C94470030
S11300300C9447000C9447000C9447000C94470020
S11300400C9447000C9447000C9447000C94470010
S11300500C94470011241FBECFE5D4E0DEBFCDBF12
S113006010E0A0E6B0E0E4E4F3E002C005900D92F5
S1130070A038B107D9F720E0A0E8B0E001C01D9294
S1130080A438B207E1F70E94E9000C94A0010C9493
S113009000001F920F920FB60F9211248F939F931B
S11300A08091800090918100019769F41EBC8CB509
S11300B09DB590938300809382001DBC1CBC10925C
S11300C08100109280008091800090918100892BA2
S11300D049F48EB581608EBD81E090E090938100FB
S11300E0809380009F918F910F900FBE0F901F906F
S11300F01895982F907F98BB98B39E7F98BB98B320
S11301009D7F98BB98B3946098BBE9EFF0E031977A
S1130110F1F700C0000098B39B7F98BBF0E18F9F7C
S1130120C001112488BB88B38E7F88BB88B38D7FC0
S113013088BB88B3846088BB89EF90E00197F1F7AE
S113014000C0000088B38B7F88BB0895982F907FF0
S113015098BB98B3916098BB98B39D7F98BB98B3B4
S1130160946098BBE9EFF0E03197F1F700C000002C
S113017098B39B7F98BBF0E18F9FC001112488BB8B
S113018088B3816088BB88B38D7F88BB88B3846063
S113019088BB89EF90E00197F1F700C0000088B3B5
S11301A08B7F88BB08950F931F93CF93DF938C01AC
S11301B0C0E0D0E003C00E94A6002196F801EC0F35
S11301C0FD1F80818111F7CFDF91CF911F910F9196
S11301D00895CF93DF93CDB7DEB760970FB6F89449
S11301E0DEBF0FBECDBF8FEF87BB8BEF81BB83ED2F
S11301F090E30197F1F700C000008BB780648BBFD8
S113020085B7816085BF82E00E94790088E20E9400
S113021079008CE00E94790086E00E94790078944D
S113022082B3816082BB95E09A95F1F782B38E7FA9
S113023082BB85E08A95F1F78091820090918300DA
S11302406AE370E00E9443018B0180E80E94790018
S113025080E690E00E94D30080EC0E9479008FE653
S113026090E00E94D3004AE0BE016F5F7F4FC80157
S11302700E946B01CE0101960E94D30089E790E0B1
S11302800E94D300CDCF97FB072E16F4009407D01D
S113029077FD09D00E94570107FC05D03EF49095E4
S11302A081959F4F0895709561957F4F0895AA1B7E
S11302B0BB1B51E107C0AA1FBB1FA617B70710F04D
S11302C0A61BB70B881F991F5A95A9F7809590957F
S11302D0BC01CD010895BB274A3031F4992322F49F
S11302E0BDE2909581959F4F0C947701BB27FB014C
S11302F05527AA27880F991FAA1FA41710F0A41B1B
S113030083955051B9F7A05DAA3308F0A95DA19374
S1130310009779F7B111B1931192CB010C9490012C
S1130320DC01FC01672F71917723E1F7329704C058
S11303307C916D9370836291AE17BF07C8F30895E3
S1070340F894FFCF5B
S11303445265766976696E6720496E646961004412
S1130354495354414E43453D00636D202020200001
S9030000FC
