:100000000C942A000C9434000C9434000C943400AA
:100010000C9434000C9434000C9434000C94340090
:100020000C9434000C9434000C9434000C94340080
:100030000C9434000C9434000C9434000C94340070
:100040000C9434000C9434000C9434000C94340060
:100050000C94340011241FBECFE5D4E0DEBFCDBF29
:100060000E9436000C9451000C9400008FEF87BB67
:1000700088B3816088BB2FEF83ED90E321508040EF
:100080009040E1F700C0000088B38E7F88BB2FEF5F
:1000900083ED90E3215080409040E1F700C00000E4
:0600A000E7CFF894FFCF4A
:00000001FF
