:100000000C942A000C9434000C9434000C943400AA
:100010000C9434000C9434000C9434000C94340090
:100020000C9434000C9434000C9434000C94340080
:100030000C9434000C9434000C9434000C94340070
:100040000C9434000C9434000C9434000C94340060
:100050000C94340011241FBECFE5D4E0DEBFCDBF29
:100060000E9436000C945A000C9400008FEF8ABB5B
:1000700081E08BBB2FE38DE093E0215080409040E6
:10008000E1F700C0000082E08BBB2FE38DE093E03E
:10009000215080409040E1F700C0000084E08BBB1D
:1000A0002FE38DE093E0215080409040E1F700C0C5
:0800B0000000DECFF894FFCF41
:00000001FF
