:100000000C942A000C9434000C9434000C943400AA
:100010000C9434000C9434000C9434000C94340090
:100020000C9434000C9434000C9434000C94340080
:100030000C9434000C9434000C9434000C94340070
:100040000C9434000C9434000C9434000C94340060
:100050000C94340011241FBECFE5D4E0DEBFCDBF29
:100060000E9436000C9446000C9400001ABA8FEFE0
:1000700087BB89B3833019F485E088BBFACF89B395
:10008000813011F488BBF5CF18BAF3CFF894FFCFC5
:00000001FF
